:10000000E7C0000002C1000000C10000FEC0000007
:10001000FCC00000FAC00000F8C00000F6C00000FC
:10002000F4C00000F2C00000F0C100000FC20000E8
:10003000ECC00000EAC00000E8C00000E6C000001C
:10004000E4C00000E2C00000E0C00000DEC000002C
:10005000DCC00000DAC00000D8C00000D6C000003C
:10006000D4C00000D2C00000D0C00000CEC000004C
:10007000CCC00000CAC00000C8C00000C6C000005C
:10008000C4C00000C2C00000C0C00000BEC000006C
:10009000BCC00000BAC0000000010000EA0012006D
:1000A000020000FC0022002100000E0109002200D5
:1000B000001E0170000300008E0104010309049278
:1000C000010A020309049E013001C136000000212B
:1000D00026010700000000000008808080800000EA
:1000E00000000000000000000000120110010000EC
:1000F0000040C410C0820001010200010902220078
:100100000101008032090400000103000000092100
:10011000110100012270000705810340000A05015A
:100120000905A10115002501350045017501950D51
:1001300005091901290D8102950381010501250792
:10014000463B0175049501651409398142650095A6
:1001500001810126FF0046FF0009300931093209FB
:10016000357508950481020600FF0920092109223E
:100170000923092409250926092709280929092A03
:10018000092B950C81020A21269508B102C00403AF
:1001900009040A03530045004700410000003003F2
:1001A0005600490052005400550041002000530001
:1001B0005400490043004B002000480069006700DC
:1001C00068002000470072006100640065000000C4
:1001D00011241FBECFEFD0E2DEBFCDBF11E0A0E003
:1001E000B1E0ECEEF6E000E00BBF02C007900D922C
:1001F000A230B107D9F711E0A2E0B1E001C01D9231
:10020000A731B107E1F702D06FC2FACEAF92BF9229
:10021000CF92DF92EF92FF920F931F9380E880932B
:100220006100109261008FEF85B98FEB8BB9569A00
:100230005E9AA0D0B6D08823E9F380E197E220E966
:1002400031E0F9013197F1F70197D9F75E9842E073
:10025000A42E36E0B32E24E0C22E93E0D92E85E002
:10026000E82EFF24F39407E01FEF2ED24A990CC02A
:1002700010920601499903C0009306011CC04899D9
:100280001AC0F092060117C04B990CC0C09206012B
:10029000499903C0E09206010EC048990CC0D09263
:1002A000060109C0499903C0B092060104C04899EB
:1002B00002C0A0920601189907C0809104018260D3
:1002C0008093040110931101199907C080910401D2
:1002D000816080930401109312011A9907C08091E4
:1002E000040188608093040110930F011B9907C0DB
:1002F00080910401846080930401109310011C9983
:1003000007C080910401806280930401109314015E
:100310001D9907C0809104018068809304011093A7
:1003200016011E9907C08091040180618093040129
:10033000109313011F9907C080910401806480937A
:100340000401109315014C9905C08091050182604C
:10035000809305014D9905C08091050181608093CE
:1003600005014F9905C080910501806180930501C9
:100370001BD07BCF81E88093D70080EA8093D800A0
:1003800086E189BD09B400FEFDCF80E98093D800E5
:100390001092E000109202018CE08093E2007894C9
:1003A000089580910201089580910201882359F1F6
:1003B0008FB7F89491E09093E9009091E4009E5CEF
:1003C00021E03091E80035FF03C0E4E0F1E00EC029
:1003D0008FBF809102018823B1F08091E4008917DA
:1003E00091F08FB7F8942093E900EBCF919190931F
:1003F000F10091E0E731F907C9F79AE39093E8003B
:100400008FBF80E008958FEF08951F920F920FB66F
:100410000F9211248F938091E1001092E10083FFED
:100420000FC01092E90081E08093EB001092EC0085
:1004300082E38093ED0088E08093F0001092020147
:100440008F910F900FBE0F901F9018951F920F92D3
:100450000FB60F920BB60F9211242F933F934F9329
:100460005F936F937F938F939F93AF93BF93CF933C
:10047000DF93EF93FF931092E9008091E80083FFF0
:100480000BC19091F1008091F1002091F10030E0DA
:100490006091F100562F40E0242B352B6091F10044
:1004A00070E0E091F1005E2F40E0642B752BB0917D
:1004B000F100A091F10042EF4093E800863009F08E
:1004C00055C04FE950E0CA010597FA013797C59129
:1004D000D491C217D307E9F4FC01C591D491C61792
:1004E000D707B9F40296FC01459154910296FC019C
:1004F00084912B2F30E07A2F60E0262B372B2F3F73
:10050000310519F010F02FEF30E0281750F4822F4A
:1005100008C0495F5F4F0796F0E0403D5F07A9F6CE
:10052000BBC07EEF2091E80030E0F901E570F0708B
:100530003097C1F322FDB3C0982F813408F090E4C6
:10054000692F9A0107C0F9012F5F3F4FE491E093B3
:10055000F10061506623B9F7490F511D891B709353
:10056000E8008823F9F69034E9F299C0853059F40F
:100570008EEF8093E8008091E80080FFFCCF206838
:100580002093E3008CC0893069F5992309F040C0BD
:10059000209302018EEF8093E80081E049EC50E067
:1005A0008093E9009A014F5F5F4FF9019491909316
:1005B000EB00992371F09A012F5F3F4FFA014491AC
:1005C0004093EC00A9014F5F5F4FF9012491209304
:1005D000ED008F5F853021F78EE18093EA00109265
:1005E000EA005DC0883049F4903891F48091E800C9
:1005F00080FFFCCF8091020133C0882349F48091B1
:10060000E80080FFFCCF1092F1001092F10040C092
:100610006115710509F040C0913A29F5813079F4EE
:100620008091E80080FFFCCFEFECF0E084918093B4
:10063000F100319680E0E73DF807C1F729C082302C
:1006400039F48091E80080FFFCCF8091030108C05D
:10065000833011F58091E80080FFFCCF809100018C
:100660008093F10015C09132B9F4893041F4809142
:10067000E80082FFFCCF8BEF8093E80009C08A304E
:1006800019F43093030104C08B3031F4209300013E
:100690008EEF8093E80003C081E28093EB00FF912E
:1006A000EF91DF91CF91BF91AF919F918F917F910A
:1006B0006F915F914F913F912F910F900BBE0F90D3
:1006C0000FBE0F901F90189584E091E067ED70E0E9
:1006D00043E150E000C0FB01DC0102C005900D9237
:0C06E00041505040D8F70895F894FFCF27
:0206EC0001000B
:00000001FF
